:100000000C942A000C9477010C943C000C943C0056
:100010000C943C000C943C000C943C000C943C0070
:100020000C943C000C943C000C943C000C943C0060
:100030000C943C000C943C000C943C000C943C0050
:100040000C943C000C943C000C943C000C943C0040
:100050000C943C0011241FBECFE5D8E0DEBFCDBF1D
:1000600020E0A0E6B0E001C01D92A336B207E1F7A0
:100070000E94A6010C94F5020C94000041E060E09F
:1000800081E40E94AB0141E061E081E40E94AB01A8
:1000900041E062E081E40E94AB0141E060E082E483
:1000A0000E94AB0141E061E082E40E94AB0141E0CB
:1000B00062E082E40E94AB01109261001092600045
:1000C00010926200789485B7836085BF8BB7806497
:1000D0008BBF08951F93CF93DF93182FC0E0D0E01C
:1000E00011C0113021F461E082E40E94A30161E0BB
:1000F00081E40E94A3010E94D602809160008130B9
:1001000021F02196C530D10564F3DF91CF911F9185
:10011000089581112CC0613089F018F06230D1F05F
:10012000089560E081E40E949B0161E081E40E9407
:100130009F0162E081E40E949F01089560E081E4F4
:100140000E949F0162E081E40E949F0180E00E9482
:100150006A00089560E081E40E949F0161E081E40B
:100160000E949F0162E081E40E949B01089581301A
:1001700059F5613089F018F06230D1F0089560E0EF
:1001800082E40E949B0161E082E40E949F0162E0A0
:1001900082E40E949F01089560E082E40E949F0132
:1001A00062E082E40E949F0181E00E946A0008955B
:1001B00060E082E40E949F0161E082E40E949F016E
:1001C00062E082E40E949B01089580916100813089
:1001D000A9F018F0823061F1F8CF60E080E00E9471
:1001E00089000E94E60280916000813019F410922B
:1001F0006000EBCF81E080936100E7CF61E080E0B9
:100200000E94890080916000813019F41092600092
:10021000DCCF80916200811104C082E08093610094
:10022000D4CF813029F41092610010926200CDCFBA
:1002300062E080E00E9489000E94E60280916000F6
:10024000813019F410926000C0CF81E0809361008A
:1002500080936200BACF809161008230C1F460E087
:1002600081E00E9489000E94E60262E081E40E942F
:100270009F0161E081E00E94890062E081E00E94CC
:1002800089001092610081E0809360000895809160
:100290006100813021F080916100811127C060E010
:1002A00081E40E949F0161E081E40E949F0161E07E
:1002B00081E00E94890060E081E00E94890062E0A4
:1002C00080E00E9489000E94E60262E081E40E94D0
:1002D0009F0161E081E00E94890062E081E00E946C
:1002E00089001092610081E08093600008951F9260
:1002F0000F920FB60F9211242F933F934F935F935A
:100300006F937F938F939F93AF93BF93EF93FF93DD
:100310000E942B01FF91EF91BF91AF919F918F911F
:100320007F916F915F914F913F912F910F900FBEF1
:100330000F901F90189541E00E942502089540E01B
:100340000E94250208950E949F0208950E943E0087
:100350000E94E500FDCF823431F118F4813439F088
:1003600008958334E1F1843409F454C008954111AF
:100370000CC02AB381E090E002C0880F991F6A95F3
:10038000E2F7809582238ABB0895413009F05CC072
:100390002AB381E090E002C0880F991F6A95E2F7C6
:1003A000822B8ABB089541110CC027B381E090E0F5
:1003B00002C0880F991F6A95E2F78095822387BB58
:1003C0000895413009F040C027B381E090E002C0B9
:1003D000880F991F6A95E2F7822B87BB0895411118
:1003E0000CC024B381E090E002C0880F991F6A9589
:1003F000E2F78095822384BB0895413029F524B328
:1004000081E090E002C0880F991F6A95E2F7822B85
:1004100084BB089541110CC021B381E090E002C07B
:10042000880F991F6A95E2F78095822381BB089512
:10043000413051F421B381E090E002C0880F991F50
:100440006A95E2F7822B81BB0895823431F118F46A
:10045000813439F008958334E1F1843409F454C0CF
:10046000089541110CC02BB381E090E002C0880FC9
:10047000991F6A95E2F7809582238BBB08954130DE
:1004800009F05CC02BB381E090E002C0880F991F97
:100490006A95E2F7822B8BBB089541110CC028B3FB
:1004A00081E090E002C0880F991F6A95E2F780957D
:1004B000822388BB0895413009F040C028B381E011
:1004C00090E002C0880F991F6A95E2F7822B88BBE3
:1004D000089541110CC025B381E090E002C0880F5F
:1004E000991F6A95E2F78095822385BB0895413074
:1004F00029F525B381E090E002C0880F991F6A9525
:10050000E2F7822B85BB089541110CC022B381E034
:1005100090E002C0880F991F6A95E2F780958223C8
:1005200082BB0895413051F422B381E090E002C0D3
:10053000880F991F6A95E2F7822B82BB0895823457
:10054000A1F018F4813431F008958334C9F0843473
:1005500011F108952BB381E090E002C0880F991F3C
:100560006A95E2F782278BBB089528B381E090E07B
:1005700002C0880F991F6A95E2F7822788BB089509
:1005800025B381E090E002C0880F991F6A95E2F7D9
:10059000822785BB089522B381E090E002C0880FD6
:1005A000991F6A95E2F7822782BB08951EBC82ECF0
:1005B0008DBD87EF8CBD88B7846088BF8EB58360A2
:1005C0008EBD08B602FEFDCF1EBC089583EB8DBD27
:1005D00085EB8CBD88B7846088BF8EB584608EBD86
:0E05E00008B602FEFDCF1EBC0895F894FFCFB2
:00000001FF
